:1000000002008AE5836003E49322A882E622E58366
:100010006004E4938003A882E6F822E5836004E4A8
:10002000938003A882E6F922E5836004E4938003C9
:10003000A882E6FA22E5836004E4938003A882E6BE
:10004000FB22E5836004E4938003A882E6FC22E5BA
:10005000836004E4938003A882E6FD22E5836004C4
:10006000E4938003A882E6FE22E5836004E49380A3
:1000700003A882E6FF22E4F5D075813078207A105B
:0D008000F608DAFC12011102000002007601
:10010000467269656E64730048656C6C6F210020EF
:10011000000203A3752A01752B08752C01752D00AB
:10012000752E01752F0F75803875A00175A00075AB
:1001300080C275A00175A00075800C75A00175A026
:10014000007528007529807580B275A00375A0021E
:100150007580A075A00375A0027580AD75A00375AC
:10016000A0027580A075A00375A0027580B175A06E
:100170000375A0027580A975A00375A0027580AEF5
:1001800075A00375A00275808F75A00175A000E4AD
:10019000F522F523E52324F9E52234FF50028002FD
:1001A0008003020227E4F524F525801FE525252B91
:1001B000F582E524352AF583120003F58075A00346
:1001C00075A0020525E52570020524E524B5220762
:1001D000E525B5230280045004800080CF75808F10
:1001E00075A00175A000E4F524F525801175801037
:1001F00075A00175A0000525E52570020524E524FC
:10020000B52207E525B5230280045004800080DD77
:100210000523E52370020522E52324F9E52234FFB6
:10022000500280030201A5E4F522F523E52324F61C
:10023000E52234FF5002800280030202E9E4F52443
:10024000F525E52524F8E52434FF500280028002DC
:10025000804CE525252BF582E524352AF58312000F
:1002600003F58075A00375A002E52524F9E5243483
:10027000FF500280028011852E83852F8212000399
:10028000F58075A00375A0020525E52570020524FB
:10029000E52524F8E52434FF5002800280B4E4F51B
:1002A00024F525E52524F6E52434FF50028002805C
:1002B00002801F75801075A00175A0000525E52539
:1002C00070020524E52524F6E52434FF500280025F
:1002D00080E10523E52370020522E52324F6E522CB
:1002E00034FF5002800302023D75801475A0017531
:1002F000A000752200752306E523452270028002C6
:10030000800302038E7407C39523F525740095229C
:10031000F524E52524F8E52434FF5002800280020C
:10032000804CE525252BF582E524352AF58312003E
:1003300003F58075A00375A002E52524FAE52434B1
:10034000FF500280028011852E83852F82120003C8
:10035000F58075A00375A0020525E525700205242A
:10036000E52524F8E52434FF5002800280B475802E
:100370008075A00175A000E52324FFF523E5223454
:10038000FFF522E523452270028003020305852E36
:1003900083852F82120003F58075A00375A00202E9
:0603A00001862202011497
:00000001FF
