:10000000020058898288838B00EC4D6036E4E0F66C
:1000100008A31DBDFFF31C80F0B800118B00EC4D50
:100020006021E7F609081DBDFFF41C80F189828874
:10003000838B00EC4D600CE493F608A31DBDFFF329
:100040001C80F022E4F5D075813278207A12F6080F
:0B005000DAFC12011002000002004464
:100100003738392B3435362D3132332A43303D2FB1
:1001100002025C780179007A007B207D107C00125D
:100120000019E4F530F53175803875A00175A0002F
:1001300075808075A00175A000C290209402800295
:10014000800A7923878075A00375A002209502801C
:1001500002800A7922878075A00375A0022096028A
:100160008002800A7921878075A00375A0022097FC
:10017000028002800A7920878075A00375A002D2D0
:1001800090C2912094028002800A7927878075A00E
:100190000375A0022095028002800A792687807567
:1001A000A00375A0022096028002800A792587802C
:1001B00075A00375A0022097028002800A79248727
:1001C0008075A00375A002D291C292209402800291
:1001D000800A792B878075A00375A0022095028084
:1001E00002800A792A878075A00375A002209602F2
:1001F0008002800A7929878075A00375A002209764
:10020000028002800A7928878075A00375A002D237
:1002100092C2932094028002800A792F878075A071
:100220000375A0022095028002800A792E878075CE
:10023000A00375A0022096028002800A792D878093
:1002400075A00375A00220970280028009758001C5
:0F02500075A00175A000D293020139220201139B
:00000001FF
